S018000071646F662D656D6265646465642D76322E7372656336
S113000071C000008EC000008CC000008AC00000D7
S113001088C0000086C0000084C0000082C00000C8
S113002080C000007EC000007CC000007AC00000D8
S113003078C0000076C0000074C0000072C00000E8
S113004070C000006EC000006CC000006AC00000F8
S113005068C0000066C0000064C0000062C0000008
S113006060C000005FC000008FC000005AC00000E4
S113007058C0000056C0000054C0000052C0000028
S113008050C000004EC000004CC000004AC0000038
S1130090F2C0000022C1000044C0000042C00000C1
S11300A040C000003EC000003CC000003AC0000058
S11300B038C0000036C0000034C0000032C0000068
S11300C030C000002EC000002CC000002AC0000078
S11300D028C0000026C0000024C0000022C0000088
S11300E020C0000011241FBECFEFD1E2DEBFCDBF80
S11300F000E00CBF12E0A0E0B2E0E6EAF4E000E0C9
S11301000BBF02C007900D92AC30B107D9F722E0C3
S1130110ACE0B2E001C01D92AC3AB207E1F759D1AC
S1130120C0C16ECF1F920F920FB60F9211240BB65F
S11301300F922F938F939F93EF93FF938091C0001F
S11301402091C6008871E0915302EF5FEF719091A6
S11301505202E91739F0E0935302F0E0EA5AFD4FF6
S1130160208301C082E090915102892B8093510237
S1130170FF91EF919F918F912F910F900BBE0F9054
S11301800FBE0F901F9018951F920F920FB60F92EB
S113019011240BB60F928F939F93EF93FF9390913B
S11301A0550280915402981769F0E0915402EF5F70
S11301B0EF71E0935402F0E0EA58FD4F80818093A0
S11301C0C60005C0E1ECF0E080818F7D8083FF9163
S11301D0EF919F918F910F900BBE0F900FBE0F90D8
S11301E01F901895109255021092540210925302C7
S11301F010925202992324F422E02093C0009F77A6
S11302009093C5008093C40088E98093C10086E080
S11302108093C200089590915302809152029817DE
S113022081F0E0915202EF5FEF71E0935202F0E04F
S1130230EA5AFD4F2081809151021092510230E020
S113024002C020E031E0822F932F089520915502BF
S11302502F5F2F71909154022917E1F3E22FF0E000
S1130260EA58FD4F808320935502E1ECF0E0808151
S11302708062808308951F920F920FB60F9211240B
S11302800BB60F922F938F939F93EF93FF938091CD
S1130290C8002091CE008871E0910E02EF5FEF71EB
S11302A090910D02E91739F0E0930E02F0E0EF5E51
S11302B0FD4F208301C082E090910C02892B809332
S11302C00C02FF91EF919F918F912F910F900BBE94
S11302D00F900FBE0F901F9018951F920F920FB69C
S11302E00F9211240BB60F928F939F93EF93FF936A
S11302F09091100280910F02981769F0E0910F021B
S1130300EF5FEF71E0930F02F0E0EF5CFD4F80814F
S11303108093CE0005C0E9ECF0E080818F7D80837E
S1130320FF91EF919F918F910F900BBE0F900FBE95
S11303300F901F901895CF92DF92EF92FF920F9338
S11303401F93CF93DF931F92CDB7DEB76C01DB0110
S11303508C9180958983F6018285938518161906F8
S1130360F4F47601F6E0EF0EF11C00E010E0D701A2
S1130370ED91FD917D0180819181DC01ED91FC91F4
S11303800190F081E02DBE016F5F7F4F19950F5FE3
S11303901F4FF601828593850817190744F30F90C0
S11303A0DF91CF911F910F91FF90EF90DF90CF904D
S11303B008954CDF80E090E00895CF93FB01C08165
S11303C08C2F44DFCC2311F02F9A01C02F98CF91AA
S11303D00895CF93DF93CDB7DEB769970FB6F8943E
S11303E0DEBF0FBECDBF83E390E0FCDE89ED91E07C
S11303F090939F0280939E021092A1021092A002F9
S113040082E0809399021092A3021092A20286E9DC
S113041092E09093A9028093A8027894279A8091FD
S1130420A4029091A5029C838B8324E032E03A835A
S113043029839E012F5F3F4F3E832D839C012F5FB5
S11304403F4F3E8B2D8B02969093A5028093A4027E
S11304508AE092E09C8B8B8BCE014396988F8F8B96
S1130460CE0105969E878D87CE01479698878F8308
S113047081E090E09C878B87CEDE9C012227232B92
S1130480D9F7898FED85FE8580819181DC01ED911D
S1130490FC910190F081E02DBE01675E7F4F1995BC
S10904A0EBCFF894FFCF3E
S10F04A6000000009B0100000000DD01CC
S9030000FC
