S018000071646F662D656D6265646465642D76322E7372656336
S113000071C000008EC000008CC000008AC00000D7
S113001088C0000086C0000084C0000082C00000C8
S113002080C000007EC000007CC000007AC00000D8
S113003078C0000076C0000074C0000072C00000E8
S113004070C000006EC000006CC000006AC00000F8
S113005068C0000066C0000064C0000062C0000008
S113006060C000005FC000008FC000005AC00000E4
S113007058C0000056C0000054C0000052C0000028
S113008050C000004EC000004CC000004AC0000038
S1130090E5C0000015C1000044C0000042C00000DB
S11300A040C000003EC000003CC000003AC0000058
S11300B038C0000036C0000034C0000032C0000068
S11300C030C000002EC000002CC000002AC0000078
S11300D028C0000026C0000024C0000022C0000088
S11300E020C0000011241FBECFEFD1E2DEBFCDBF80
S11300F000E00CBF12E0A0E0B2E0E0E3F3E000E0D7
S11301000BBF02C007900D92AC30B107D9F722E0C3
S1130110ACE0B2E001C01D92A639B207E1F7FED00F
S113012005C16ECF1F920F920FB60F9211240BB61A
S11301300F922F938F939F93EF93FF938091C0001F
S11301402091C6008871E0915302EF5FEF719091A6
S11301505202E91739F0E0935302F0E0EA5AFD4FF6
S1130160208301C082E090915102892B8093510237
S1130170FF91EF919F918F912F910F900BBE0F9054
S11301800FBE0F901F9018951F920F920FB60F92EB
S113019011240BB60F928F939F93EF93FF9390913B
S11301A0550280915402981769F0E0915402EF5F70
S11301B0EF71E0935402F0E0EA58FD4F80818093A0
S11301C0C60005C0E1ECF0E080818F7D8083FF9163
S11301D0EF919F918F910F900BBE0F900FBE0F90D8
S11301E01F901895109255021092540210925302C7
S11301F010925202992324F422E02093C0009F77A6
S11302009093C5008093C40088E98093C10086E080
S11302108093C2000895209155022F5F2F71909111
S113022054022917E1F3E22FF0E0EA58FD4F8083EE
S113023020935502E1ECF0E0808180628083089590
S1130240CF93DF93EC018881882329F02196E3DFA3
S113025089918111FCCFDF91CF9108951F920F9264
S11302600FB60F9211240BB60F922F938F939F9377
S1130270EF93FF938091C8002091CE008871E091A4
S11302800E02EF5FEF7190910D02E91739F0E093E0
S11302900E02F0E0EF5EFD4F208301C082E09091FA
S11302A00C02892B80930C02FF91EF919F918F9107
S11302B02F910F900BBE0F900FBE0F901F901895AB
S11302C01F920F920FB60F9211240BB60F928F93B9
S11302D09F93EF93FF939091100280910F029817D0
S11302E069F0E0910F02EF5FEF71E0930F02F0E02D
S11302F0EF5CFD4F80818093CE0005C0E9ECF0E017
S113030080818F7D8083FF91EF919F918F910F90DA
S11303100BBE0F900FBE0F901F90189583E390E0D3
S113032061DF789480E092E08BDFFFCFF894FFCF19
S10F033048616C6C6F2057656C742100F0
S9030000FC
